{
  "_format": "hh-sol-artifact-1",
  "contractName": "EmblemVault",
  "sourceName": "contracts/EmblemVault.sol",
  "abi": [
    {
      "inputs": [],
      "stateMutability": "nonpayable",
      "type": "constructor"
    },
    {
      "anonymous": false,
      "inputs": [
        {
          "indexed": true,
          "internalType": "address",
          "name": "_owner",
          "type": "address"
        },
        {
          "indexed": true,
          "internalType": "address",
          "name": "_approved",
          "type": "address"
        },
        {
          "indexed": true,
          "internalType": "uint256",
          "name": "_tokenId",
          "type": "uint256"
        }
      ],
      "name": "Approval",
      "type": "event"
    },
    {
      "anonymous": false,
      "inputs": [
        {
          "indexed": true,
          "internalType": "address",
          "name": "_owner",
          "type": "address"
        },
        {
          "indexed": true,
          "internalType": "address",
          "name": "_operator",
          "type": "address"
        },
        {
          "indexed": false,
          "internalType": "bool",
          "name": "_approved",
          "type": "bool"
        }
      ],
      "name": "ApprovalForAll",
      "type": "event"
    },
    {
      "anonymous": false,
      "inputs": [
        {
          "indexed": true,
          "internalType": "address",
          "name": "previousOwner",
          "type": "address"
        },
        {
          "indexed": true,
          "internalType": "address",
          "name": "newOwner",
          "type": "address"
        }
      ],
      "name": "OwnershipTransferred",
      "type": "event"
    },
    {
      "anonymous": false,
      "inputs": [
        {
          "indexed": true,
          "internalType": "address",
          "name": "_from",
          "type": "address"
        },
        {
          "indexed": true,
          "internalType": "address",
          "name": "_to",
          "type": "address"
        },
        {
          "indexed": true,
          "internalType": "uint256",
          "name": "_tokenId",
          "type": "uint256"
        }
      ],
      "name": "Transfer",
      "type": "event"
    },
    {
      "anonymous": false,
      "inputs": [
        {
          "indexed": false,
          "internalType": "string",
          "name": "_from",
          "type": "string"
        },
        {
          "indexed": false,
          "internalType": "string",
          "name": "_to",
          "type": "string"
        }
      ],
      "name": "UpdatedContractURI",
      "type": "event"
    },
    {
      "inputs": [],
      "name": "CANNOT_TRANSFER_TO_ZERO_ADDRESS",
      "outputs": [
        {
          "internalType": "string",
          "name": "",
          "type": "string"
        }
      ],
      "stateMutability": "view",
      "type": "function"
    },
    {
      "inputs": [],
      "name": "NOT_CURRENT_OWNER",
      "outputs": [
        {
          "internalType": "string",
          "name": "",
          "type": "string"
        }
      ],
      "stateMutability": "view",
      "type": "function"
    },
    {
      "inputs": [
        {
          "internalType": "address",
          "name": "_approved",
          "type": "address"
        },
        {
          "internalType": "uint256",
          "name": "_tokenId",
          "type": "uint256"
        }
      ],
      "name": "approve",
      "outputs": [],
      "stateMutability": "nonpayable",
      "type": "function"
    },
    {
      "inputs": [
        {
          "internalType": "address",
          "name": "_owner",
          "type": "address"
        }
      ],
      "name": "balanceOf",
      "outputs": [
        {
          "internalType": "uint256",
          "name": "",
          "type": "uint256"
        }
      ],
      "stateMutability": "view",
      "type": "function"
    },
    {
      "inputs": [
        {
          "internalType": "uint256",
          "name": "_tokenId",
          "type": "uint256"
        }
      ],
      "name": "burn",
      "outputs": [],
      "stateMutability": "nonpayable",
      "type": "function"
    },
    {
      "inputs": [
        {
          "internalType": "string",
          "name": "name",
          "type": "string"
        },
        {
          "internalType": "string",
          "name": "symbol",
          "type": "string"
        }
      ],
      "name": "changeName",
      "outputs": [],
      "stateMutability": "nonpayable",
      "type": "function"
    },
    {
      "inputs": [],
      "name": "contractURI",
      "outputs": [
        {
          "internalType": "string",
          "name": "",
          "type": "string"
        }
      ],
      "stateMutability": "view",
      "type": "function"
    },
    {
      "inputs": [
        {
          "internalType": "uint256",
          "name": "_tokenId",
          "type": "uint256"
        }
      ],
      "name": "getApproved",
      "outputs": [
        {
          "internalType": "address",
          "name": "",
          "type": "address"
        }
      ],
      "stateMutability": "view",
      "type": "function"
    },
    {
      "inputs": [
        {
          "internalType": "address",
          "name": "_owner",
          "type": "address"
        }
      ],
      "name": "getOwnerNFTCount",
      "outputs": [
        {
          "internalType": "uint256",
          "name": "",
          "type": "uint256"
        }
      ],
      "stateMutability": "view",
      "type": "function"
    },
    {
      "inputs": [
        {
          "internalType": "address",
          "name": "_owner",
          "type": "address"
        },
        {
          "internalType": "address",
          "name": "_operator",
          "type": "address"
        }
      ],
      "name": "isApprovedForAll",
      "outputs": [
        {
          "internalType": "bool",
          "name": "",
          "type": "bool"
        }
      ],
      "stateMutability": "view",
      "type": "function"
    },
    {
      "inputs": [
        {
          "internalType": "address",
          "name": "_to",
          "type": "address"
        },
        {
          "internalType": "uint256",
          "name": "_tokenId",
          "type": "uint256"
        },
        {
          "internalType": "string",
          "name": "_uri",
          "type": "string"
        },
        {
          "internalType": "string",
          "name": "_payload",
          "type": "string"
        }
      ],
      "name": "mint",
      "outputs": [],
      "stateMutability": "nonpayable",
      "type": "function"
    },
    {
      "inputs": [],
      "name": "name",
      "outputs": [
        {
          "internalType": "string",
          "name": "_name",
          "type": "string"
        }
      ],
      "stateMutability": "view",
      "type": "function"
    },
    {
      "inputs": [],
      "name": "owner",
      "outputs": [
        {
          "internalType": "address",
          "name": "",
          "type": "address"
        }
      ],
      "stateMutability": "view",
      "type": "function"
    },
    {
      "inputs": [
        {
          "internalType": "uint256",
          "name": "_tokenId",
          "type": "uint256"
        }
      ],
      "name": "ownerOf",
      "outputs": [
        {
          "internalType": "address",
          "name": "_owner",
          "type": "address"
        }
      ],
      "stateMutability": "view",
      "type": "function"
    },
    {
      "inputs": [
        {
          "internalType": "address",
          "name": "_from",
          "type": "address"
        },
        {
          "internalType": "address",
          "name": "_to",
          "type": "address"
        },
        {
          "internalType": "uint256",
          "name": "_tokenId",
          "type": "uint256"
        }
      ],
      "name": "safeTransferFrom",
      "outputs": [],
      "stateMutability": "nonpayable",
      "type": "function"
    },
    {
      "inputs": [
        {
          "internalType": "address",
          "name": "_from",
          "type": "address"
        },
        {
          "internalType": "address",
          "name": "_to",
          "type": "address"
        },
        {
          "internalType": "uint256",
          "name": "_tokenId",
          "type": "uint256"
        },
        {
          "internalType": "bytes",
          "name": "_data",
          "type": "bytes"
        }
      ],
      "name": "safeTransferFrom",
      "outputs": [],
      "stateMutability": "nonpayable",
      "type": "function"
    },
    {
      "inputs": [
        {
          "internalType": "address",
          "name": "_operator",
          "type": "address"
        },
        {
          "internalType": "bool",
          "name": "_approved",
          "type": "bool"
        }
      ],
      "name": "setApprovalForAll",
      "outputs": [],
      "stateMutability": "nonpayable",
      "type": "function"
    },
    {
      "inputs": [
        {
          "internalType": "bytes4",
          "name": "_interfaceID",
          "type": "bytes4"
        }
      ],
      "name": "supportsInterface",
      "outputs": [
        {
          "internalType": "bool",
          "name": "",
          "type": "bool"
        }
      ],
      "stateMutability": "view",
      "type": "function"
    },
    {
      "inputs": [],
      "name": "symbol",
      "outputs": [
        {
          "internalType": "string",
          "name": "_symbol",
          "type": "string"
        }
      ],
      "stateMutability": "view",
      "type": "function"
    },
    {
      "inputs": [
        {
          "internalType": "uint256",
          "name": "_index",
          "type": "uint256"
        }
      ],
      "name": "tokenByIndex",
      "outputs": [
        {
          "internalType": "uint256",
          "name": "",
          "type": "uint256"
        }
      ],
      "stateMutability": "view",
      "type": "function"
    },
    {
      "inputs": [
        {
          "internalType": "address",
          "name": "_owner",
          "type": "address"
        },
        {
          "internalType": "uint256",
          "name": "_index",
          "type": "uint256"
        }
      ],
      "name": "tokenOfOwnerByIndex",
      "outputs": [
        {
          "internalType": "uint256",
          "name": "",
          "type": "uint256"
        }
      ],
      "stateMutability": "view",
      "type": "function"
    },
    {
      "inputs": [
        {
          "internalType": "uint256",
          "name": "_tokenId",
          "type": "uint256"
        }
      ],
      "name": "tokenPayload",
      "outputs": [
        {
          "internalType": "string",
          "name": "",
          "type": "string"
        }
      ],
      "stateMutability": "view",
      "type": "function"
    },
    {
      "inputs": [
        {
          "internalType": "uint256",
          "name": "_tokenId",
          "type": "uint256"
        }
      ],
      "name": "tokenURI",
      "outputs": [
        {
          "internalType": "string",
          "name": "",
          "type": "string"
        }
      ],
      "stateMutability": "view",
      "type": "function"
    },
    {
      "inputs": [],
      "name": "totalSupply",
      "outputs": [
        {
          "internalType": "uint256",
          "name": "",
          "type": "uint256"
        }
      ],
      "stateMutability": "view",
      "type": "function"
    },
    {
      "inputs": [
        {
          "internalType": "address",
          "name": "_from",
          "type": "address"
        },
        {
          "internalType": "address",
          "name": "_to",
          "type": "address"
        },
        {
          "internalType": "uint256",
          "name": "_tokenId",
          "type": "uint256"
        }
      ],
      "name": "transferFrom",
      "outputs": [],
      "stateMutability": "nonpayable",
      "type": "function"
    },
    {
      "inputs": [
        {
          "internalType": "address",
          "name": "_newOwner",
          "type": "address"
        }
      ],
      "name": "transferOwnership",
      "outputs": [],
      "stateMutability": "nonpayable",
      "type": "function"
    },
    {
      "inputs": [
        {
          "internalType": "string",
          "name": "uri",
          "type": "string"
        }
      ],
      "name": "updateContractURI",
      "outputs": [],
      "stateMutability": "nonpayable",
      "type": "function"
    },
    {
      "inputs": [
        {
          "internalType": "uint256",
          "name": "_tokenId",
          "type": "uint256"
        },
        {
          "internalType": "string",
          "name": "_uri",
          "type": "string"
        }
      ],
      "name": "updateTokenUri",
      "outputs": [],
      "stateMutability": "nonpayable",
      "type": "function"
    }
  ],
  "bytecode": "0x60806040523480156200001157600080fd5b5060016000806301ffc9a760e01b7bffffffffffffffffffffffffffffffffffffffffffffffffffffffff1916815260200190815260200160002060006101000a81548160ff02191690831515021790555060016000806380ac58cd60e01b7bffffffffffffffffffffffffffffffffffffffffffffffffffffffff1916815260200190815260200160002060006101000a81548160ff0219169083151502179055506001600080635b5e139f60e01b7bffffffffffffffffffffffffffffffffffffffffffffffffffffffff1916815260200190815260200160002060006101000a81548160ff021916908315150217905550600160008063780e9d6360e01b7bffffffffffffffffffffffffffffffffffffffffffffffffffffffff1916815260200190815260200160002060006101000a81548160ff02191690831515021790555033600e60006101000a81548173ffffffffffffffffffffffffffffffffffffffff021916908373ffffffffffffffffffffffffffffffffffffffff1602179055506040518060400160405280600f81526020017f456d626c656d205661756c74205632000000000000000000000000000000000081525060059080519060200190620001e492919062000239565b506040518060400160405280600a81526020017f456d626c656d2e70726f00000000000000000000000000000000000000000000815250600690805190602001906200023292919062000239565b50620002e8565b828054600181600116156101000203166002900490600052602060002090601f016020900481019282601f106200027c57805160ff1916838001178555620002ad565b82800160010185558215620002ad579182015b82811115620002ac5782518255916020019190600101906200028f565b5b509050620002bc9190620002c0565b5090565b620002e591905b80821115620002e1576000816000905550600101620002c7565b5090565b90565b6142f080620002f86000396000f3fe608060405234801561001057600080fd5b50600436106101c45760003560e01c8063860d248a116100f9578063bd7f4c8d11610097578063e8a3d48511610071578063e8a3d48514610527578063e985e9c514610545578063f2fde38b14610575578063f3fe3bc314610591576101c4565b8063bd7f4c8d146104ab578063c87b56dd146104db578063d31af4841461050b576101c4565b806395d89b41116100d357806395d89b41146104255780639ad9523214610443578063a22cb46514610473578063b88d4fde1461048f576101c4565b8063860d248a146103cd57806386575e40146103eb5780638da5cb5b14610407576101c4565b80632fb102cf116101665780634f6ccce7116101405780634f6ccce7146103215780636352211e1461035157806370a08231146103815780637e5b1e24146103b1576101c4565b80632fb102cf146102cd57806342842e0e146102e957806342966c6814610305576101c4565b8063095ea7b3116101a2578063095ea7b31461024757806318160ddd1461026357806323b872dd146102815780632f745c591461029d576101c4565b806301ffc9a7146101c957806306fdde03146101f9578063081812fc14610217575b600080fd5b6101e360048036036101de9190810190613c9d565b6105af565b6040516101f09190613fff565b60405180910390f35b610201610616565b60405161020e919061403c565b60405180910390f35b610231600480360361022c9190810190613da5565b6106b8565b60405161023e9190613f98565b60405180910390f35b610261600480360361025c9190810190613bc6565b6107d3565b005b61026b610bb6565b6040516102789190614095565b60405180910390f35b61029b60048036036102969190810190613abb565b610bc3565b005b6102b760048036036102b29190810190613bc6565b611015565b6040516102c49190614095565b60405180910390f35b6102e760048036036102e29190810190613c02565b611131565b005b61030360048036036102fe9190810190613abb565b6112a8565b005b61031f600480360361031a9190810190613da5565b6112c8565b005b61033b60048036036103369190810190613da5565b6114b0565b6040516103489190614095565b60405180910390f35b61036b60048036036103669190810190613da5565b611551565b6040516103789190613f98565b60405180910390f35b61039b60048036036103969190810190613a56565b611637565b6040516103a89190614095565b60405180910390f35b6103cb60048036036103c69190810190613d64565b6116f1565b005b6103d561180e565b6040516103e2919061401a565b60405180910390f35b61040560048036036104009190810190613cef565b611847565b005b61040f61193a565b60405161041c9190613f98565b60405180910390f35b61042d611960565b60405161043a919061403c565b60405180910390f35b61045d60048036036104589190810190613da5565b611a02565b60405161046a919061403c565b60405180910390f35b61048d60048036036104889190810190613b8a565b611b95565b005b6104a960048036036104a49190810190613b0a565b611c92565b005b6104c560048036036104c09190810190613a56565b611ce9565b6040516104d29190614095565b60405180910390f35b6104f560048036036104f09190810190613da5565b611cfb565b604051610502919061403c565b60405180910390f35b61052560048036036105209190810190613dce565b611e8e565b005b61052f612061565b60405161053c919061403c565b60405180910390f35b61055f600480360361055a9190810190613a7f565b612103565b60405161056c9190613fff565b60405180910390f35b61058f600480360361058a9190810190613a56565b612197565b005b6105996123c9565b6040516105a6919061401a565b60405180910390f35b6000806000837bffffffffffffffffffffffffffffffffffffffffffffffffffffffff19167bffffffffffffffffffffffffffffffffffffffffffffffffffffffff1916815260200190815260200160002060009054906101000a900460ff169050919050565b606060058054600181600116156101000203166002900480601f0160208091040260200160405190810160405280929190818152602001828054600181600116156101000203166002900480156106ae5780601f10610683576101008083540402835291602001916106ae565b820191906000526020600020905b81548152906001019060200180831161069157829003601f168201915b5050505050905090565b600081600073ffffffffffffffffffffffffffffffffffffffff166001600083815260200190815260200160002060009054906101000a900473ffffffffffffffffffffffffffffffffffffffff1673ffffffffffffffffffffffffffffffffffffffff1614156040518060400160405280600681526020017f303033303032000000000000000000000000000000000000000000000000000081525090610796576040517f08c379a000000000000000000000000000000000000000000000000000000000815260040161078d919061401a565b60405180910390fd5b506002600084815260200190815260200160002060009054906101000a900473ffffffffffffffffffffffffffffffffffffffff16915050919050565b8060006001600083815260200190815260200160002060009054906101000a900473ffffffffffffffffffffffffffffffffffffffff1690503373ffffffffffffffffffffffffffffffffffffffff168173ffffffffffffffffffffffffffffffffffffffff1614806108cc5750600460008273ffffffffffffffffffffffffffffffffffffffff1673ffffffffffffffffffffffffffffffffffffffff16815260200190815260200160002060003373ffffffffffffffffffffffffffffffffffffffff1673ffffffffffffffffffffffffffffffffffffffff16815260200190815260200160002060009054906101000a900460ff165b6040518060400160405280600681526020017f303033303033000000000000000000000000000000000000000000000000000081525090610943576040517f08c379a000000000000000000000000000000000000000000000000000000000815260040161093a919061401a565b60405180910390fd5b5082600073ffffffffffffffffffffffffffffffffffffffff166001600083815260200190815260200160002060009054906101000a900473ffffffffffffffffffffffffffffffffffffffff1673ffffffffffffffffffffffffffffffffffffffff1614156040518060400160405280600681526020017f303033303032000000000000000000000000000000000000000000000000000081525090610a20576040517f08c379a0000000000000000000000000000000000000000000000000000000008152600401610a17919061401a565b60405180910390fd5b5060006001600086815260200190815260200160002060009054906101000a900473ffffffffffffffffffffffffffffffffffffffff1690508073ffffffffffffffffffffffffffffffffffffffff168673ffffffffffffffffffffffffffffffffffffffff1614156040518060400160405280600681526020017f303033303038000000000000000000000000000000000000000000000000000081525090610b00576040517f08c379a0000000000000000000000000000000000000000000000000000000008152600401610af7919061401a565b60405180910390fd5b50856002600087815260200190815260200160002060006101000a81548173ffffffffffffffffffffffffffffffffffffffff021916908373ffffffffffffffffffffffffffffffffffffffff160217905550848673ffffffffffffffffffffffffffffffffffffffff168273ffffffffffffffffffffffffffffffffffffffff167f8c5be1e5ebec7d5bd14f71427d1e84f3dd0314c0f7b2291e5b200ac8c7c3b92560405160405180910390a4505050505050565b6000600a80549050905090565b8060006001600083815260200190815260200160002060009054906101000a900473ffffffffffffffffffffffffffffffffffffffff1690503373ffffffffffffffffffffffffffffffffffffffff168173ffffffffffffffffffffffffffffffffffffffff161480610c9457503373ffffffffffffffffffffffffffffffffffffffff166002600084815260200190815260200160002060009054906101000a900473ffffffffffffffffffffffffffffffffffffffff1673ffffffffffffffffffffffffffffffffffffffff16145b80610d255750600460008273ffffffffffffffffffffffffffffffffffffffff1673ffffffffffffffffffffffffffffffffffffffff16815260200190815260200160002060003373ffffffffffffffffffffffffffffffffffffffff1673ffffffffffffffffffffffffffffffffffffffff16815260200190815260200160002060009054906101000a900460ff165b6040518060400160405280600681526020017f303033303034000000000000000000000000000000000000000000000000000081525090610d9c576040517f08c379a0000000000000000000000000000000000000000000000000000000008152600401610d93919061401a565b60405180910390fd5b5082600073ffffffffffffffffffffffffffffffffffffffff166001600083815260200190815260200160002060009054906101000a900473ffffffffffffffffffffffffffffffffffffffff1673ffffffffffffffffffffffffffffffffffffffff1614156040518060400160405280600681526020017f303033303032000000000000000000000000000000000000000000000000000081525090610e79576040517f08c379a0000000000000000000000000000000000000000000000000000000008152600401610e70919061401a565b60405180910390fd5b5060006001600086815260200190815260200160002060009054906101000a900473ffffffffffffffffffffffffffffffffffffffff1690508673ffffffffffffffffffffffffffffffffffffffff168173ffffffffffffffffffffffffffffffffffffffff16146040518060400160405280600681526020017f303033303037000000000000000000000000000000000000000000000000000081525090610f58576040517f08c379a0000000000000000000000000000000000000000000000000000000008152600401610f4f919061401a565b60405180910390fd5b50600073ffffffffffffffffffffffffffffffffffffffff168673ffffffffffffffffffffffffffffffffffffffff1614156040518060400160405280600681526020017f303033303031000000000000000000000000000000000000000000000000000081525090611001576040517f08c379a0000000000000000000000000000000000000000000000000000000008152600401610ff8919061401a565b60405180910390fd5b5061100c8686612402565b50505050505050565b6000600c60008473ffffffffffffffffffffffffffffffffffffffff1673ffffffffffffffffffffffffffffffffffffffff1681526020019081526020016000208054905082106040518060400160405280600681526020017f3030353030370000000000000000000000000000000000000000000000000000815250906110d3576040517f08c379a00000000000000000000000000000000000000000000000000000000081526004016110ca919061401a565b60405180910390fd5b50600c60008473ffffffffffffffffffffffffffffffffffffffff1673ffffffffffffffffffffffffffffffffffffffff168152602001908152602001600020828154811061111e57fe5b9060005260206000200154905092915050565b600e60009054906101000a900473ffffffffffffffffffffffffffffffffffffffff1673ffffffffffffffffffffffffffffffffffffffff163373ffffffffffffffffffffffffffffffffffffffff16146040518060400160405280600681526020017f3031383030310000000000000000000000000000000000000000000000000000815250906111f9576040517f08c379a00000000000000000000000000000000000000000000000000000000081526004016111f0919061401a565b60405180910390fd5b5061120486866124b7565b6112528585858080601f016020809104026020016040519081016040528093929190818152602001838380828437600081840152601f19601f8201169050808301925050505050505061250e565b6112a08583838080601f016020809104026020016040519081016040528093929190818152602001838380828437600081840152601f19601f82011690508083019250505050505050612618565b505050505050565b6112c383838360405180602001604052806000815250612722565b505050565b8060006001600083815260200190815260200160002060009054906101000a900473ffffffffffffffffffffffffffffffffffffffff1690503373ffffffffffffffffffffffffffffffffffffffff168173ffffffffffffffffffffffffffffffffffffffff16148061139957503373ffffffffffffffffffffffffffffffffffffffff166002600084815260200190815260200160002060009054906101000a900473ffffffffffffffffffffffffffffffffffffffff1673ffffffffffffffffffffffffffffffffffffffff16145b8061142a5750600460008273ffffffffffffffffffffffffffffffffffffffff1673ffffffffffffffffffffffffffffffffffffffff16815260200190815260200160002060003373ffffffffffffffffffffffffffffffffffffffff1673ffffffffffffffffffffffffffffffffffffffff16815260200190815260200160002060009054906101000a900460ff165b6040518060400160405280600681526020017f3030333030340000000000000000000000000000000000000000000000000000815250906114a1576040517f08c379a0000000000000000000000000000000000000000000000000000000008152600401611498919061401a565b60405180910390fd5b506114ab83612cf0565b505050565b6000600a8054905082106040518060400160405280600681526020017f303035303037000000000000000000000000000000000000000000000000000081525090611531576040517f08c379a0000000000000000000000000000000000000000000000000000000008152600401611528919061401a565b60405180910390fd5b50600a828154811061153f57fe5b90600052602060002001549050919050565b60006001600083815260200190815260200160002060009054906101000a900473ffffffffffffffffffffffffffffffffffffffff169050600073ffffffffffffffffffffffffffffffffffffffff168173ffffffffffffffffffffffffffffffffffffffff1614156040518060400160405280600681526020017f303033303032000000000000000000000000000000000000000000000000000081525090611631576040517f08c379a0000000000000000000000000000000000000000000000000000000008152600401611628919061401a565b60405180910390fd5b50919050565b60008073ffffffffffffffffffffffffffffffffffffffff168273ffffffffffffffffffffffffffffffffffffffff1614156040518060400160405280600681526020017f3030333030310000000000000000000000000000000000000000000000000000815250906116e0576040517f08c379a00000000000000000000000000000000000000000000000000000000081526004016116d7919061401a565b60405180910390fd5b506116ea82612e4c565b9050919050565b600e60009054906101000a900473ffffffffffffffffffffffffffffffffffffffff1673ffffffffffffffffffffffffffffffffffffffff163373ffffffffffffffffffffffffffffffffffffffff16146040518060400160405280600681526020017f3031383030310000000000000000000000000000000000000000000000000000815250906117b9576040517f08c379a00000000000000000000000000000000000000000000000000000000081526004016117b0919061401a565b60405180910390fd5b507fc4761b87ec5248fbb0deaff2d6b1651b8dd04322c6597549eefe44d799d480ce6007826040516117ec92919061405e565b60405180910390a1806007908051906020019061180a929190613798565b5050565b6040518060400160405280600681526020017f303138303032000000000000000000000000000000000000000000000000000081525081565b600e60009054906101000a900473ffffffffffffffffffffffffffffffffffffffff1673ffffffffffffffffffffffffffffffffffffffff163373ffffffffffffffffffffffffffffffffffffffff16146040518060400160405280600681526020017f30313830303100000000000000000000000000000000000000000000000000008152509061190f576040517f08c379a0000000000000000000000000000000000000000000000000000000008152600401611906919061401a565b60405180910390fd5b50838360059190611921929190613818565b50818160069190611933929190613818565b5050505050565b600e60009054906101000a900473ffffffffffffffffffffffffffffffffffffffff1681565b606060068054600181600116156101000203166002900480601f0160208091040260200160405190810160405280929190818152602001828054600181600116156101000203166002900480156119f85780601f106119cd576101008083540402835291602001916119f8565b820191906000526020600020905b8154815290600101906020018083116119db57829003601f168201915b5050505050905090565b606081600073ffffffffffffffffffffffffffffffffffffffff166001600083815260200190815260200160002060009054906101000a900473ffffffffffffffffffffffffffffffffffffffff1673ffffffffffffffffffffffffffffffffffffffff1614156040518060400160405280600681526020017f303033303032000000000000000000000000000000000000000000000000000081525090611ae0576040517f08c379a0000000000000000000000000000000000000000000000000000000008152600401611ad7919061401a565b60405180910390fd5b50600960008481526020019081526020016000208054600181600116156101000203166002900480601f016020809104026020016040519081016040528092919081815260200182805460018160011615610100020316600290048015611b885780601f10611b5d57610100808354040283529160200191611b88565b820191906000526020600020905b815481529060010190602001808311611b6b57829003601f168201915b5050505050915050919050565b80600460003373ffffffffffffffffffffffffffffffffffffffff1673ffffffffffffffffffffffffffffffffffffffff16815260200190815260200160002060008473ffffffffffffffffffffffffffffffffffffffff1673ffffffffffffffffffffffffffffffffffffffff16815260200190815260200160002060006101000a81548160ff0219169083151502179055508173ffffffffffffffffffffffffffffffffffffffff163373ffffffffffffffffffffffffffffffffffffffff167f17307eab39ab6107e8899845ad3d59bd9653f200f220920489ca2b5937696c3183604051611c869190613fff565b60405180910390a35050565b611ce285858585858080601f016020809104026020016040519081016040528093929190818152602001838380828437600081840152601f19601f82011690508083019250505050505050612722565b5050505050565b6000611cf482612e4c565b9050919050565b606081600073ffffffffffffffffffffffffffffffffffffffff166001600083815260200190815260200160002060009054906101000a900473ffffffffffffffffffffffffffffffffffffffff1673ffffffffffffffffffffffffffffffffffffffff1614156040518060400160405280600681526020017f303033303032000000000000000000000000000000000000000000000000000081525090611dd9576040517f08c379a0000000000000000000000000000000000000000000000000000000008152600401611dd0919061401a565b60405180910390fd5b50600860008481526020019081526020016000208054600181600116156101000203166002900480601f016020809104026020016040519081016040528092919081815260200182805460018160011615610100020316600290048015611e815780601f10611e5657610100808354040283529160200191611e81565b820191906000526020600020905b815481529060010190602001808311611e6457829003601f168201915b5050505050915050919050565b81600073ffffffffffffffffffffffffffffffffffffffff166001600083815260200190815260200160002060009054906101000a900473ffffffffffffffffffffffffffffffffffffffff1673ffffffffffffffffffffffffffffffffffffffff1614156040518060400160405280600681526020017f303033303032000000000000000000000000000000000000000000000000000081525090611f6a576040517f08c379a0000000000000000000000000000000000000000000000000000000008152600401611f61919061401a565b60405180910390fd5b50600e60009054906101000a900473ffffffffffffffffffffffffffffffffffffffff1673ffffffffffffffffffffffffffffffffffffffff163373ffffffffffffffffffffffffffffffffffffffff16146040518060400160405280600681526020017f303138303031000000000000000000000000000000000000000000000000000081525090612033576040517f08c379a000000000000000000000000000000000000000000000000000000000815260040161202a919061401a565b60405180910390fd5b508160086000858152602001908152602001600020908051906020019061205b929190613798565b50505050565b606060078054600181600116156101000203166002900480601f0160208091040260200160405190810160405280929190818152602001828054600181600116156101000203166002900480156120f95780601f106120ce576101008083540402835291602001916120f9565b820191906000526020600020905b8154815290600101906020018083116120dc57829003601f168201915b5050505050905090565b6000600460008473ffffffffffffffffffffffffffffffffffffffff1673ffffffffffffffffffffffffffffffffffffffff16815260200190815260200160002060008373ffffffffffffffffffffffffffffffffffffffff1673ffffffffffffffffffffffffffffffffffffffff16815260200190815260200160002060009054906101000a900460ff16905092915050565b600e60009054906101000a900473ffffffffffffffffffffffffffffffffffffffff1673ffffffffffffffffffffffffffffffffffffffff163373ffffffffffffffffffffffffffffffffffffffff16146040518060400160405280600681526020017f30313830303100000000000000000000000000000000000000000000000000008152509061225f576040517f08c379a0000000000000000000000000000000000000000000000000000000008152600401612256919061401a565b60405180910390fd5b50600073ffffffffffffffffffffffffffffffffffffffff168173ffffffffffffffffffffffffffffffffffffffff1614156040518060400160405280600681526020017f303138303032000000000000000000000000000000000000000000000000000081525090612308576040517f08c379a00000000000000000000000000000000000000000000000000000000081526004016122ff919061401a565b60405180910390fd5b508073ffffffffffffffffffffffffffffffffffffffff16600e60009054906101000a900473ffffffffffffffffffffffffffffffffffffffff1673ffffffffffffffffffffffffffffffffffffffff167f8be0079c531659141344cd1fd0a4f28419497f9722a3daafe3b4186f6b6457e060405160405180910390a380600e60006101000a81548173ffffffffffffffffffffffffffffffffffffffff021916908373ffffffffffffffffffffffffffffffffffffffff16021790555050565b6040518060400160405280600681526020017f303138303031000000000000000000000000000000000000000000000000000081525081565b60006001600083815260200190815260200160002060009054906101000a900473ffffffffffffffffffffffffffffffffffffffff16905061244382612e98565b61244d8183612f39565b61245783836131e2565b818373ffffffffffffffffffffffffffffffffffffffff168273ffffffffffffffffffffffffffffffffffffffff167fddf252ad1be2c89b69c2b068fc378daa952ba7f163c4a11628f55a4df523b3ef60405160405180910390a4505050565b6124c182826133d6565b600a8190806001815401808255809150506001900390600052602060002001600090919091909150556001600a8054905003600b6000838152602001908152602001600020819055505050565b81600073ffffffffffffffffffffffffffffffffffffffff166001600083815260200190815260200160002060009054906101000a900473ffffffffffffffffffffffffffffffffffffffff1673ffffffffffffffffffffffffffffffffffffffff1614156040518060400160405280600681526020017f3030333030320000000000000000000000000000000000000000000000000000815250906125ea576040517f08c379a00000000000000000000000000000000000000000000000000000000081526004016125e1919061401a565b60405180910390fd5b5081600860008581526020019081526020016000209080519060200190612612929190613798565b50505050565b81600073ffffffffffffffffffffffffffffffffffffffff166001600083815260200190815260200160002060009054906101000a900473ffffffffffffffffffffffffffffffffffffffff1673ffffffffffffffffffffffffffffffffffffffff1614156040518060400160405280600681526020017f3030333030320000000000000000000000000000000000000000000000000000815250906126f4576040517f08c379a00000000000000000000000000000000000000000000000000000000081526004016126eb919061401a565b60405180910390fd5b508160096000858152602001908152602001600020908051906020019061271c929190613798565b50505050565b8160006001600083815260200190815260200160002060009054906101000a900473ffffffffffffffffffffffffffffffffffffffff1690503373ffffffffffffffffffffffffffffffffffffffff168173ffffffffffffffffffffffffffffffffffffffff1614806127f357503373ffffffffffffffffffffffffffffffffffffffff166002600084815260200190815260200160002060009054906101000a900473ffffffffffffffffffffffffffffffffffffffff1673ffffffffffffffffffffffffffffffffffffffff16145b806128845750600460008273ffffffffffffffffffffffffffffffffffffffff1673ffffffffffffffffffffffffffffffffffffffff16815260200190815260200160002060003373ffffffffffffffffffffffffffffffffffffffff1673ffffffffffffffffffffffffffffffffffffffff16815260200190815260200160002060009054906101000a900460ff165b6040518060400160405280600681526020017f3030333030340000000000000000000000000000000000000000000000000000815250906128fb576040517f08c379a00000000000000000000000000000000000000000000000000000000081526004016128f2919061401a565b60405180910390fd5b5083600073ffffffffffffffffffffffffffffffffffffffff166001600083815260200190815260200160002060009054906101000a900473ffffffffffffffffffffffffffffffffffffffff1673ffffffffffffffffffffffffffffffffffffffff1614156040518060400160405280600681526020017f3030333030320000000000000000000000000000000000000000000000000000815250906129d8576040517f08c379a00000000000000000000000000000000000000000000000000000000081526004016129cf919061401a565b60405180910390fd5b5060006001600087815260200190815260200160002060009054906101000a900473ffffffffffffffffffffffffffffffffffffffff1690508773ffffffffffffffffffffffffffffffffffffffff168173ffffffffffffffffffffffffffffffffffffffff16146040518060400160405280600681526020017f303033303037000000000000000000000000000000000000000000000000000081525090612ab7576040517f08c379a0000000000000000000000000000000000000000000000000000000008152600401612aae919061401a565b60405180910390fd5b50600073ffffffffffffffffffffffffffffffffffffffff168773ffffffffffffffffffffffffffffffffffffffff1614156040518060400160405280600681526020017f303033303031000000000000000000000000000000000000000000000000000081525090612b60576040517f08c379a0000000000000000000000000000000000000000000000000000000008152600401612b57919061401a565b60405180910390fd5b50612b6b8787612402565b612b8a8773ffffffffffffffffffffffffffffffffffffffff166135c4565b15612ce65760008773ffffffffffffffffffffffffffffffffffffffff1663150b7a02338b8a8a6040518563ffffffff1660e01b8152600401612bd09493929190613fb3565b602060405180830381600087803b158015612bea57600080fd5b505af1158015612bfe573d6000803e3d6000fd5b505050506040513d601f19601f82011682018060405250612c229190810190613cc6565b905063150b7a0260e01b7bffffffffffffffffffffffffffffffffffffffffffffffffffffffff1916817bffffffffffffffffffffffffffffffffffffffffffffffffffffffff1916146040518060400160405280600681526020017f303033303035000000000000000000000000000000000000000000000000000081525090612ce3576040517f08c379a0000000000000000000000000000000000000000000000000000000008152600401612cda919061401a565b60405180910390fd5b50505b5050505050505050565b612cf98161360f565b60006008600083815260200190815260200160002080546001816001161561010002031660029004905014612d4857600860008281526020019081526020016000206000612d479190613898565b5b60006009600083815260200190815260200160002080546001816001161561010002031660029004905014612d9757600960008281526020019081526020016000206000612d969190613898565b5b6000600b600083815260200190815260200160002054905060006001600a805490500390506000600a8281548110612dcb57fe5b9060005260206000200154905080600a8481548110612de657fe5b9060005260206000200181905550600a805480612dff57fe5b6001900381819060005260206000200160009055905582600b6000838152602001908152602001600020819055506000600b60008681526020019081526020016000208190555050505050565b6000600c60008373ffffffffffffffffffffffffffffffffffffffff1673ffffffffffffffffffffffffffffffffffffffff168152602001908152602001600020805490509050919050565b600073ffffffffffffffffffffffffffffffffffffffff166002600083815260200190815260200160002060009054906101000a900473ffffffffffffffffffffffffffffffffffffffff1673ffffffffffffffffffffffffffffffffffffffff1614612f36576002600082815260200190815260200160002060006101000a81549073ffffffffffffffffffffffffffffffffffffffff02191690555b50565b8173ffffffffffffffffffffffffffffffffffffffff166001600083815260200190815260200160002060009054906101000a900473ffffffffffffffffffffffffffffffffffffffff1673ffffffffffffffffffffffffffffffffffffffff16146040518060400160405280600681526020017f303033303037000000000000000000000000000000000000000000000000000081525090613012576040517f08c379a0000000000000000000000000000000000000000000000000000000008152600401613009919061401a565b60405180910390fd5b506001600082815260200190815260200160002060006101000a81549073ffffffffffffffffffffffffffffffffffffffff02191690556000600d600083815260200190815260200160002054905060006001600c60008673ffffffffffffffffffffffffffffffffffffffff1673ffffffffffffffffffffffffffffffffffffffff1681526020019081526020016000208054905003905081811461317e576000600c60008673ffffffffffffffffffffffffffffffffffffffff1673ffffffffffffffffffffffffffffffffffffffff16815260200190815260200160002082815481106130fe57fe5b9060005260206000200154905080600c60008773ffffffffffffffffffffffffffffffffffffffff1673ffffffffffffffffffffffffffffffffffffffff168152602001908152602001600020848154811061315657fe5b906000526020600020018190555082600d600083815260200190815260200160002081905550505b600c60008573ffffffffffffffffffffffffffffffffffffffff1673ffffffffffffffffffffffffffffffffffffffff1681526020019081526020016000208054806131c657fe5b6001900381819060005260206000200160009055905550505050565b600073ffffffffffffffffffffffffffffffffffffffff166001600083815260200190815260200160002060009054906101000a900473ffffffffffffffffffffffffffffffffffffffff1673ffffffffffffffffffffffffffffffffffffffff16146040518060400160405280600681526020017f3030333030360000000000000000000000000000000000000000000000000000815250906132bc576040517f08c379a00000000000000000000000000000000000000000000000000000000081526004016132b3919061401a565b60405180910390fd5b50816001600083815260200190815260200160002060006101000a81548173ffffffffffffffffffffffffffffffffffffffff021916908373ffffffffffffffffffffffffffffffffffffffff160217905550600c60008373ffffffffffffffffffffffffffffffffffffffff1673ffffffffffffffffffffffffffffffffffffffff1681526020019081526020016000208190806001815401808255809150506001900390600052602060002001600090919091909150556001600c60008473ffffffffffffffffffffffffffffffffffffffff1673ffffffffffffffffffffffffffffffffffffffff1681526020019081526020016000208054905003600d6000838152602001908152602001600020819055505050565b600073ffffffffffffffffffffffffffffffffffffffff168273ffffffffffffffffffffffffffffffffffffffff1614156040518060400160405280600681526020017f30303330303100000000000000000000000000000000000000000000000000008152509061347e576040517f08c379a0000000000000000000000000000000000000000000000000000000008152600401613475919061401a565b60405180910390fd5b50600073ffffffffffffffffffffffffffffffffffffffff166001600083815260200190815260200160002060009054906101000a900473ffffffffffffffffffffffffffffffffffffffff1673ffffffffffffffffffffffffffffffffffffffff16146040518060400160405280600681526020017f303033303036000000000000000000000000000000000000000000000000000081525090613559576040517f08c379a0000000000000000000000000000000000000000000000000000000008152600401613550919061401a565b60405180910390fd5b5061356482826131e2565b808273ffffffffffffffffffffffffffffffffffffffff16600073ffffffffffffffffffffffffffffffffffffffff167fddf252ad1be2c89b69c2b068fc378daa952ba7f163c4a11628f55a4df523b3ef60405160405180910390a45050565b60008060007fc5d2460186f7233c927e7db2dcc703c0e500b653ca82273b7bfad8045d85a47060001b9050833f91506000801b82141580156136065750808214155b92505050919050565b80600073ffffffffffffffffffffffffffffffffffffffff166001600083815260200190815260200160002060009054906101000a900473ffffffffffffffffffffffffffffffffffffffff1673ffffffffffffffffffffffffffffffffffffffff1614156040518060400160405280600681526020017f3030333030320000000000000000000000000000000000000000000000000000815250906136eb576040517f08c379a00000000000000000000000000000000000000000000000000000000081526004016136e2919061401a565b60405180910390fd5b5060006001600084815260200190815260200160002060009054906101000a900473ffffffffffffffffffffffffffffffffffffffff16905061372d83612e98565b6137378184612f39565b82600073ffffffffffffffffffffffffffffffffffffffff168273ffffffffffffffffffffffffffffffffffffffff167fddf252ad1be2c89b69c2b068fc378daa952ba7f163c4a11628f55a4df523b3ef60405160405180910390a4505050565b828054600181600116156101000203166002900490600052602060002090601f016020900481019282601f106137d957805160ff1916838001178555613807565b82800160010185558215613807579182015b828111156138065782518255916020019190600101906137eb565b5b50905061381491906138e0565b5090565b828054600181600116156101000203166002900490600052602060002090601f016020900481019282601f1061385957803560ff1916838001178555613887565b82800160010185558215613887579182015b8281111561388657823582559160200191906001019061386b565b5b50905061389491906138e0565b5090565b50805460018160011615610100020316600290046000825580601f106138be57506138dd565b601f0160209004906000526020600020908101906138dc91906138e0565b5b50565b61390291905b808211156138fe5760008160009055506001016138e6565b5090565b90565b6000813590506139148161425e565b92915050565b60008135905061392981614275565b92915050565b60008135905061393e8161428c565b92915050565b6000815190506139538161428c565b92915050565b60008083601f84011261396b57600080fd5b8235905067ffffffffffffffff81111561398457600080fd5b60208301915083600182028301111561399c57600080fd5b9250929050565b60008083601f8401126139b557600080fd5b8235905067ffffffffffffffff8111156139ce57600080fd5b6020830191508360018202830111156139e657600080fd5b9250929050565b600082601f8301126139fe57600080fd5b8135613a11613a0c826140dd565b6140b0565b91508082526020830160208301858383011115613a2d57600080fd5b613a3883828461420b565b50505092915050565b600081359050613a50816142a3565b92915050565b600060208284031215613a6857600080fd5b6000613a7684828501613905565b91505092915050565b60008060408385031215613a9257600080fd5b6000613aa085828601613905565b9250506020613ab185828601613905565b9150509250929050565b600080600060608486031215613ad057600080fd5b6000613ade86828701613905565b9350506020613aef86828701613905565b9250506040613b0086828701613a41565b9150509250925092565b600080600080600060808688031215613b2257600080fd5b6000613b3088828901613905565b9550506020613b4188828901613905565b9450506040613b5288828901613a41565b935050606086013567ffffffffffffffff811115613b6f57600080fd5b613b7b88828901613959565b92509250509295509295909350565b60008060408385031215613b9d57600080fd5b6000613bab85828601613905565b9250506020613bbc8582860161391a565b9150509250929050565b60008060408385031215613bd957600080fd5b6000613be785828601613905565b9250506020613bf885828601613a41565b9150509250929050565b60008060008060008060808789031215613c1b57600080fd5b6000613c2989828a01613905565b9650506020613c3a89828a01613a41565b955050604087013567ffffffffffffffff811115613c5757600080fd5b613c6389828a016139a3565b9450945050606087013567ffffffffffffffff811115613c8257600080fd5b613c8e89828a016139a3565b92509250509295509295509295565b600060208284031215613caf57600080fd5b6000613cbd8482850161392f565b91505092915050565b600060208284031215613cd857600080fd5b6000613ce684828501613944565b91505092915050565b60008060008060408587031215613d0557600080fd5b600085013567ffffffffffffffff811115613d1f57600080fd5b613d2b878288016139a3565b9450945050602085013567ffffffffffffffff811115613d4a57600080fd5b613d56878288016139a3565b925092505092959194509250565b600060208284031215613d7657600080fd5b600082013567ffffffffffffffff811115613d9057600080fd5b613d9c848285016139ed565b91505092915050565b600060208284031215613db757600080fd5b6000613dc584828501613a41565b91505092915050565b60008060408385031215613de157600080fd5b6000613def85828601613a41565b925050602083013567ffffffffffffffff811115613e0c57600080fd5b613e18858286016139ed565b9150509250929050565b613e2b816141d5565b82525050565b613e3a81614161565b82525050565b613e4981614173565b82525050565b6000613e5a8261411e565b613e64818561413f565b9350613e7481856020860161421a565b613e7d8161424d565b840191505092915050565b6000613e9382614134565b613e9d8185614150565b9350613ead81856020860161421a565b613eb68161424d565b840191505092915050565b6000613ecc82614129565b613ed68185614150565b9350613ee681856020860161421a565b613eef8161424d565b840191505092915050565b600081546001811660008114613f175760018114613f3d57613f81565b607f6002830416613f288187614150565b955060ff198316865260208601935050613f81565b60028204613f4b8187614150565b9550613f5685614109565b60005b82811015613f7857815481890152600182019150602081019050613f59565b80880195505050505b505092915050565b613f92816141cb565b82525050565b6000602082019050613fad6000830184613e31565b92915050565b6000608082019050613fc86000830187613e22565b613fd56020830186613e31565b613fe26040830185613f89565b8181036060830152613ff48184613e4f565b905095945050505050565b60006020820190506140146000830184613e40565b92915050565b600060208201905081810360008301526140348184613ec1565b905092915050565b600060208201905081810360008301526140568184613e88565b905092915050565b600060408201905081810360008301526140788185613efa565b9050818103602083015261408c8184613e88565b90509392505050565b60006020820190506140aa6000830184613f89565b92915050565b6000604051905081810181811067ffffffffffffffff821117156140d357600080fd5b8060405250919050565b600067ffffffffffffffff8211156140f457600080fd5b601f19601f8301169050602081019050919050565b60008190508160005260206000209050919050565b600081519050919050565b600081519050919050565b600081519050919050565b600082825260208201905092915050565b600082825260208201905092915050565b600061416c826141ab565b9050919050565b60008115159050919050565b60007fffffffff0000000000000000000000000000000000000000000000000000000082169050919050565b600073ffffffffffffffffffffffffffffffffffffffff82169050919050565b6000819050919050565b60006141e0826141e7565b9050919050565b60006141f2826141f9565b9050919050565b6000614204826141ab565b9050919050565b82818337600083830152505050565b60005b8381101561423857808201518184015260208101905061421d565b83811115614247576000848401525b50505050565b6000601f19601f8301169050919050565b61426781614161565b811461427257600080fd5b50565b61427e81614173565b811461428957600080fd5b50565b6142958161417f565b81146142a057600080fd5b50565b6142ac816141cb565b81146142b757600080fd5b5056fea2646970667358221220132b2db766d5b8a41ceb1231b63626ed95b438560721a5de170819f15eac605764736f6c63430006020033",
  "linkReferences": {},
  "deployedLinkReferences": {}
}